{"contractName":"Wilderniss","abi":[{"inputs":[{"internalType":"contract CatchDex","name":"_catchDex","type":"address"},{"internalType":"contract Shop","name":"_shop","type":"address"}],"stateMutability":"nonpayable","type":"constructor"},{"anonymous":false,"inputs":[{"indexed":false,"internalType":"uint256","name":"blockNumber","type":"uint256"}],"name":"NextCatchableBlock","type":"event"},{"anonymous":false,"inputs":[{"indexed":true,"internalType":"address","name":"previousOwner","type":"address"},{"indexed":true,"internalType":"address","name":"newOwner","type":"address"}],"name":"OwnershipTransferred","type":"event"},{"inputs":[],"name":"CAGE_COOLDOWN_BLOCKS","outputs":[{"internalType":"uint256","name":"","type":"uint256"}],"stateMutability":"view","type":"function","constant":true},{"inputs":[],"name":"MAX_TRIES","outputs":[{"internalType":"uint256","name":"","type":"uint256"}],"stateMutability":"view","type":"function","constant":true},{"inputs":[],"name":"availableCatchables","outputs":[{"internalType":"uint256","name":"","type":"uint256"}],"stateMutability":"view","type":"function","constant":true},{"inputs":[{"internalType":"uint256","name":"","type":"uint256"}],"name":"cageProperties","outputs":[{"internalType":"uint16","name":"bestRate","type":"uint16"},{"internalType":"uint16","name":"worstRate","type":"uint16"}],"stateMutability":"view","type":"function","constant":true},{"inputs":[],"name":"catchDex","outputs":[{"internalType":"contract CatchDex","name":"","type":"address"}],"stateMutability":"view","type":"function","constant":true},{"inputs":[{"internalType":"uint256","name":"","type":"uint256"}],"name":"catchables","outputs":[{"internalType":"uint16","name":"kind","type":"uint16"},{"internalType":"uint16","name":"rarity","type":"uint16"},{"internalType":"uint16","name":"maxCatchCount","type":"uint16"}],"stateMutability":"view","type":"function","constant":true},{"inputs":[],"name":"currentKind","outputs":[{"internalType":"uint16","name":"","type":"uint16"}],"stateMutability":"view","type":"function","constant":true},{"inputs":[],"name":"currentKindCatchRate","outputs":[{"internalType":"uint16","name":"","type":"uint16"}],"stateMutability":"view","type":"function","constant":true},{"inputs":[],"name":"isOwner","outputs":[{"internalType":"bool","name":"","type":"bool"}],"stateMutability":"view","type":"function","constant":true},{"inputs":[],"name":"kindBlockNumber","outputs":[{"internalType":"uint256","name":"","type":"uint256"}],"stateMutability":"view","type":"function","constant":true},{"inputs":[],"name":"owner","outputs":[{"internalType":"address","name":"","type":"address"}],"stateMutability":"view","type":"function","constant":true},{"inputs":[],"name":"renounceOwnership","outputs":[],"stateMutability":"nonpayable","type":"function"},{"inputs":[],"name":"shop","outputs":[{"internalType":"contract Shop","name":"","type":"address"}],"stateMutability":"view","type":"function","constant":true},{"inputs":[{"internalType":"address","name":"","type":"address"}],"name":"throws","outputs":[{"internalType":"uint256","name":"kindBlock","type":"uint256"}],"stateMutability":"view","type":"function","constant":true},{"inputs":[{"internalType":"address","name":"newOwner","type":"address"}],"name":"transferOwnership","outputs":[],"stateMutability":"nonpayable","type":"function"},{"inputs":[{"internalType":"address","name":"collector","type":"address"}],"name":"getThrows","outputs":[{"internalType":"uint256","name":"kindBlock","type":"uint256"},{"components":[{"internalType":"bool","name":"collected","type":"bool"},{"internalType":"uint16","name":"cageCount","type":"uint16"},{"internalType":"uint256","name":"cageType","type":"uint256"},{"internalType":"uint256","name":"throwBlock","type":"uint256"}],"internalType":"struct Wilderniss.Throw[]","name":"","type":"tuple[]"}],"stateMutability":"view","type":"function","constant":true},{"inputs":[{"internalType":"uint256","name":"id","type":"uint256"},{"internalType":"uint16","name":"bestRate","type":"uint16"},{"internalType":"uint16","name":"worstRate","type":"uint16"}],"name":"setCage","outputs":[],"stateMutability":"nonpayable","type":"function"},{"inputs":[{"internalType":"uint256[]","name":"_catchables","type":"uint256[]"}],"name":"addCatchables","outputs":[],"stateMutability":"nonpayable","type":"function"},{"inputs":[],"name":"clearCatchables","outputs":[],"stateMutability":"nonpayable","type":"function"},{"inputs":[{"internalType":"uint256","name":"index","type":"uint256"}],"name":"removeCatchable","outputs":[],"stateMutability":"nonpayable","type":"function"},{"inputs":[],"name":"calcCurrentKind","outputs":[{"internalType":"bool","name":"","type":"bool"},{"internalType":"uint16","name":"calcKind","type":"uint16"},{"internalType":"uint256","name":"calcKindBlock","type":"uint256"},{"internalType":"uint256","name":"calcAvailableCatchables","type":"uint256"},{"internalType":"uint16","name":"calcKindCatchRate","type":"uint16"}],"stateMutability":"view","type":"function","constant":true},{"inputs":[],"name":"currentKindInfo","outputs":[{"internalType":"uint16","name":"availableKind","type":"uint16"},{"internalType":"uint256","name":"availableKindBlock","type":"uint256"}],"stateMutability":"nonpayable","type":"function"},{"inputs":[{"internalType":"uint16","name":"cageCount","type":"uint16"},{"internalType":"uint256","name":"cageType","type":"uint256"}],"name":"aWildCatchableAppears","outputs":[],"stateMutability":"nonpayable","type":"function"},{"inputs":[{"internalType":"uint256","name":"offset","type":"uint256"},{"internalType":"uint256","name":"count","type":"uint256"}],"name":"checkCages","outputs":[{"internalType":"uint256","name":"","type":"uint256"}],"stateMutability":"nonpayable","type":"function"}],"bytecode":"0x60806040523480156200001157600080fd5b5060405162002b1838038062002b188339818101604052620000379190810190620001a7565b6000620000496200017160201b60201c565b9050806000806101000a81548173ffffffffffffffffffffffffffffffffffffffff021916908373ffffffffffffffffffffffffffffffffffffffff1602179055508073ffffffffffffffffffffffffffffffffffffffff16600073ffffffffffffffffffffffffffffffffffffffff167f8be0079c531659141344cd1fd0a4f28419497f9722a3daafe3b4186f6b6457e060405160405180910390a35081600160006101000a81548173ffffffffffffffffffffffffffffffffffffffff021916908373ffffffffffffffffffffffffffffffffffffffff16021790555080600260006101000a81548173ffffffffffffffffffffffffffffffffffffffff021916908373ffffffffffffffffffffffffffffffffffffffff160217905550505062000278565b600033905090565b6000815190506200018a8162000244565b92915050565b600081519050620001a1816200025e565b92915050565b60008060408385031215620001bb57600080fd5b6000620001cb8582860162000179565b9250506020620001de8582860162000190565b9150509250929050565b6000620001f58262000224565b9050919050565b60006200020982620001e8565b9050919050565b60006200021d82620001e8565b9050919050565b600073ffffffffffffffffffffffffffffffffffffffff82169050919050565b6200024f81620001fc565b81146200025b57600080fd5b50565b620002698162000210565b81146200027557600080fd5b50565b61289080620002886000396000f3fe608060405234801561001057600080fd5b50600436106101585760003560e01c80638740b977116100c3578063bf9593fd1161007c578063bf9593fd1461039a578063c0f73baa146103bc578063d71477ff146103d8578063e19d5edf146103f4578063f2fde38b14610424578063f7a69a201461044057610158565b80638740b977146102d45780638da5cb5b146102de5780638f32d59b146102fc578063905c1b9b1461031a578063927269f114610338578063bb2b07441461036a57610158565b80635a3333c2116101155780635a3333c2146102105780635d1099701461022e578063633285bb1461025f578063715018a6146102905780637bdd98b71461029a57806385e008ff146102b657610158565b80630881fa0d1461015d57806312ffd9cf1461017b5780631b8d5e3714610199578063469632de146101b857806349182ce0146101d457806352cba681146101f2575b600080fd5b61016561045e565b60405161017291906123ff565b60405180910390f35b610183610484565b60405161019091906123e4565b60405180910390f35b6101a16104aa565b6040516101af929190612595565b60405180910390f35b6101d260048036036101cd9190810190611df5565b610668565b005b6101dc610791565b6040516101e991906125be565b60405180910390f35b6101fa610796565b60405161020791906125be565b60405180910390f35b61021861079c565b604051610225919061251a565b60405180910390f35b61024860048036036102439190810190611dcc565b6107b0565b604051610256929190612535565b60405180910390f35b61027960048036036102749190810190611cfd565b6107f0565b6040516102879291906125d9565b60405180910390f35b610298610917565b005b6102b460048036036102af9190810190611d90565b610a1d565b005b6102be610c77565b6040516102cb919061251a565b60405180910390f35b6102dc610c8b565b005b6102e6610ce2565b6040516102f3919061229b565b60405180910390f35b610304610d0b565b604051610311919061235b565b60405180910390f35b610322610d69565b60405161032f91906125be565b60405180910390f35b610352600480360361034d9190810190611dcc565b610d6f565b6040516103619392919061255e565b60405180910390f35b610384600480360361037f9190810190611e44565b610dcc565b60405161039191906125be565b60405180910390f35b6103a2610efb565b6040516103b3959493929190612376565b60405180910390f35b6103d660048036036103d19190810190611d26565b6111e2565b005b6103f260048036036103ed9190810190611dcc565b611323565b005b61040e60048036036104099190810190611cfd565b6114e0565b60405161041b91906125be565b60405180910390f35b61043e60048036036104399190810190611cfd565b6114fe565b005b610448611551565b60405161045591906125be565b60405180910390f35b600260009054906101000a900473ffffffffffffffffffffffffffffffffffffffff1681565b600160009054906101000a900473ffffffffffffffffffffffffffffffffffffffff1681565b60008060008060006104ba610efb565b809550819650829850839950849750505050505082156106615784600260146101000a81548161ffff021916908361ffff1602179055508160038190555080600260166101000a81548161ffff021916908361ffff160217905550836004819055506000600260149054906101000a900461ffff1661ffff161415610571577f9622b892afa9dc12bb0afca1095678bb623adb8a0b53eb4874e18ee00c54de848460405161056891906125be565b60405180910390a15b600260009054906101000a900473ffffffffffffffffffffffffffffffffffffffff1673ffffffffffffffffffffffffffffffffffffffff16636e6041be6105b7611556565b7f8096053b85575944c326764cc6482f6906db772a41aa99f7533f62dcadddf72b60016040518463ffffffff1660e01b81526004016105f8939291906122b6565b600060405180830381600087803b15801561061257600080fd5b505af1925050508015610623575060015b61065f573d8060008114610653576040519150601f19603f3d011682016040523d82523d6000602084013e610658565b606091505b5050610660565b5b5b5050509091565b610670610d0b565b6106af576040517f08c379a00000000000000000000000000000000000000000000000000000000081526004016106a6906124fa565b60405180910390fd5b60008261ffff161415806106c8575060008161ffff1614155b1561074b5760405180604001604052808361ffff1681526020018261ffff168152506007600085815260200190815260200160002060008201518160000160006101000a81548161ffff021916908361ffff16021790555060208201518160000160026101000a81548161ffff021916908361ffff16021790555090505061078c565b60076000848152602001908152602001600020600080820160006101000a81549061ffff02191690556000820160026101000a81549061ffff021916905550505b505050565b600281565b60045481565b600260149054906101000a900461ffff1681565b60076020528060005260406000206000915090508060000160009054906101000a900461ffff16908060000160029054906101000a900461ffff16905082565b600060606107fc6119e8565b600660008573ffffffffffffffffffffffffffffffffffffffff1673ffffffffffffffffffffffffffffffffffffffff1681526020019081526020016000206040518060400160405290816000820154815260200160018201805480602002602001604051908101604052809291908181526020016000905b828210156108f657838290600052602060002090600302016040518060800160405290816000820160009054906101000a900460ff161515151581526020016000820160019054906101000a900461ffff1661ffff1661ffff1681526020016001820154815260200160028201548152505081526020019060010190610875565b50505050815250509050806000015181602001518090509250925050915091565b61091f610d0b565b61095e576040517f08c379a0000000000000000000000000000000000000000000000000000000008152600401610955906124fa565b60405180910390fd5b600073ffffffffffffffffffffffffffffffffffffffff166000809054906101000a900473ffffffffffffffffffffffffffffffffffffffff1673ffffffffffffffffffffffffffffffffffffffff167f8be0079c531659141344cd1fd0a4f28419497f9722a3daafe3b4186f6b6457e060405160405180910390a360008060006101000a81548173ffffffffffffffffffffffffffffffffffffffff021916908373ffffffffffffffffffffffffffffffffffffffff160217905550565b60006007600083815260200190815260200160002060000160029054906101000a900461ffff1661ffff161415610a89576040517f08c379a0000000000000000000000000000000000000000000000000000000008152600401610a80906124da565b60405180910390fd5b6000610a936104aa565b9050809150506000600260149054906101000a900461ffff1661ffff161415610abc5750610c73565b6000610ac6611556565b9050600260009054906101000a900473ffffffffffffffffffffffffffffffffffffffff1673ffffffffffffffffffffffffffffffffffffffff1663345cad7e8285876040518463ffffffff1660e01b8152600401610b2793929190612324565b600060405180830381600087803b158015610b4157600080fd5b505af1158015610b55573d6000803e3d6000fd5b505050506000600660008373ffffffffffffffffffffffffffffffffffffffff1673ffffffffffffffffffffffffffffffffffffffff168152602001908152602001600020905082816000015414610bc157806001016000610bb79190611a02565b8281600001819055505b8060010160405180608001604052806000151581526020018761ffff16815260200186815260200143815250908060018154018082558091505060019003906000526020600020906003020160009091909190915060008201518160000160006101000a81548160ff02191690831515021790555060208201518160000160016101000a81548161ffff021916908361ffff160217905550604082015181600101556060820151816002015550505050505b5050565b600260169054906101000a900461ffff1681565b610c93610d0b565b610cd2576040517f08c379a0000000000000000000000000000000000000000000000000000000008152600401610cc9906124fa565b60405180910390fd5b60056000610ce09190611a26565b565b60008060009054906101000a900473ffffffffffffffffffffffffffffffffffffffff16905090565b60008060009054906101000a900473ffffffffffffffffffffffffffffffffffffffff1673ffffffffffffffffffffffffffffffffffffffff16610d4d611556565b73ffffffffffffffffffffffffffffffffffffffff1614905090565b60035481565b60058181548110610d7c57fe5b906000526020600020016000915090508060000160009054906101000a900461ffff16908060000160029054906101000a900461ffff16908060000160049054906101000a900461ffff16905083565b6000806000610dd96104aa565b809250819350505060008261ffff161415610df957600092505050610ef5565b6000610e03611556565b90506000600660008373ffffffffffffffffffffffffffffffffffffffff1673ffffffffffffffffffffffffffffffffffffffff168152602001908152602001600020905082816000015414610e8e576040517f08c379a0000000000000000000000000000000000000000000000000000000008152600401610e859061241a565b60405180910390fd5b600080905060008890505b878901811015610eeb57610edc610ecd846001018381548110610eb857fe5b9060005260206000209060030201888761155e565b8361182490919063ffffffff16565b91508080600101915050610e99565b5080955050505050505b92915050565b60008060008060006004549250600093506000915060009050824311610f56576040517f08c379a0000000000000000000000000000000000000000000000000000000008152600401610f4d9061243a565b60405180910390fd5b4360ff84011015610f7c57602a43019250600184848484945094509450945094506111db565b600260149054906101000a900461ffff16935060008461ffff1614610fc25760008484600354600260169054906101000a900461ffff16945094509450945094506111db565b600060058054905090506000844090506000600161fffe8360001c81610fe457fe5b060190505b60008761ffff1614156111c757610ffe611a47565b6005848460001c8161100c57fe5b0661ffff168154811061101b57fe5b906000526020600020016040518060600160405290816000820160009054906101000a900461ffff1661ffff1661ffff1681526020016000820160029054906101000a900461ffff1661ffff1661ffff1681526020016000820160049054906101000a900461ffff1661ffff1661ffff168152505090506000816020015161ffff161180156110b657508161ffff16816020015161ffff1610155b156111865780600001519750806040015161ffff169550600160009054906101000a900473ffffffffffffffffffffffffffffffffffffffff1673ffffffffffffffffffffffffffffffffffffffff16634fbf0fdb896040518263ffffffff1660e01b8152600401611128919061251a565b60e06040518083038186803b15801561114057600080fd5b505afa158015611154573d6000803e3d6000fd5b505050506040513d601f19601f820116820180604052506111789190810190611d67565b6080015160ff1694506111c1565b60028261ffff168161119457fe5b049150826040516020016111a89190612280565b6040516020818303038152906040528051906020012092505b50610fe9565b600187878787975097509750975097505050505b9091929394565b6111ea610d0b565b611229576040517f08c379a0000000000000000000000000000000000000000000000000000000008152600401611220906124fa565b60405180910390fd5b60008090505b815181101561131f57600082828151811061124657fe5b6020026020010151905060056040518060600160405280602084901c61ffff168152602001601084901c61ffff1681526020018361ffff168152509080600181540180825580915050600190039060005260206000200160009091909190915060008201518160000160006101000a81548161ffff021916908361ffff16021790555060208201518160000160026101000a81548161ffff021916908361ffff16021790555060408201518160000160046101000a81548161ffff021916908361ffff160217905550505050808060010191505061122f565b5050565b61132b610d0b565b61136a576040517f08c379a0000000000000000000000000000000000000000000000000000000008152600401611361906124fa565b60405180910390fd5b600060058054905090508082106113b6576040517f08c379a00000000000000000000000000000000000000000000000000000000081526004016113ad9061247a565b60405180910390fd5b600582815481106113c357fe5b90600052602060002001600560018303815481106113dd57fe5b906000526020600020016000820160009054906101000a900461ffff168160000160006101000a81548161ffff021916908361ffff1602179055506000820160029054906101000a900461ffff168160000160026101000a81548161ffff021916908361ffff1602179055506000820160049054906101000a900461ffff168160000160046101000a81548161ffff021916908361ffff160217905550905050600580548061148857fe5b60019003818190600052602060002001600080820160006101000a81549061ffff02191690556000820160026101000a81549061ffff02191690556000820160046101000a81549061ffff0219169055505090555050565b60066020528060005260406000206000915090508060000154905081565b611506610d0b565b611545576040517f08c379a000000000000000000000000000000000000000000000000000000000815260040161153c906124fa565b60405180910390fd5b61154e81611879565b50565b600a81565b600033905090565b60008360000160009054906101000a900460ff1615611580576000905061181d565b600061159a6002866002015461182490919063ffffffff16565b90504381106115ad57600091505061181d565b60018560000160006101000a81548160ff0219169083151502179055506000600354905060008114156115e55760009250505061181d565b60008660000160019054906101000a900461ffff1661ffff169050600080905061160d611a74565b600760008a6001015481526020019081526020016000206040518060400160405290816000820160009054906101000a900461ffff1661ffff1661ffff1681526020016000820160029054906101000a900461ffff1661ffff1661ffff1681525050905060008540905060008090505b848110156117d0576000801b8214156116cb576040517f08c379a00000000000000000000000000000000000000000000000000000000081526004016116c2906124ba565b60405180910390fd5b6116d4826119a7565b915060008360000151846000015185602001510361ffff168460001c816116f757fe5b06019050600260169054906101000a900461ffff1661ffff168161ffff1610156117b5578480600101955050600160009054906101000a900473ffffffffffffffffffffffffffffffffffffffff1673ffffffffffffffffffffffffffffffffffffffff1663f36a211a8b8d866040518463ffffffff1660e01b8152600401611782939291906122ed565b600060405180830381600087803b15801561179c57600080fd5b505af11580156117b0573d6000803e3d6000fd5b505050505b8685106117c257506117d0565b50808060010191505061167d565b5082850360038190555082851415611813576117ee602a43016119d7565b6004819055506000600260146101000a81548161ffff021916908361ffff1602179055505b8296505050505050505b9392505050565b60008082840190508381101561186f576040517f08c379a00000000000000000000000000000000000000000000000000000000081526004016118669061249a565b60405180910390fd5b8091505092915050565b600073ffffffffffffffffffffffffffffffffffffffff168173ffffffffffffffffffffffffffffffffffffffff1614156118e9576040517f08c379a00000000000000000000000000000000000000000000000000000000081526004016118e09061245a565b60405180910390fd5b8073ffffffffffffffffffffffffffffffffffffffff166000809054906101000a900473ffffffffffffffffffffffffffffffffffffffff1673ffffffffffffffffffffffffffffffffffffffff167f8be0079c531659141344cd1fd0a4f28419497f9722a3daafe3b4186f6b6457e060405160405180910390a3806000806101000a81548173ffffffffffffffffffffffffffffffffffffffff021916908373ffffffffffffffffffffffffffffffffffffffff16021790555050565b6000816040516020016119ba91906123c9565b604051602081830303815290604052805190602001209050919050565b600081600481905550819050919050565b604051806040016040528060008152602001606081525090565b5080546000825560030290600052602060002090810190611a239190611a96565b50565b5080546000825590600052602060002090810190611a449190611aee565b50565b6040518060600160405280600061ffff168152602001600061ffff168152602001600061ffff1681525090565b6040518060400160405280600061ffff168152602001600061ffff1681525090565b611aeb91905b80821115611ae757600080820160006101000a81549060ff02191690556000820160016101000a81549061ffff02191690556001820160009055600282016000905550600301611a9c565b5090565b90565b611b4991905b80821115611b4557600080820160006101000a81549061ffff02191690556000820160026101000a81549061ffff02191690556000820160046101000a81549061ffff021916905550600101611af4565b5090565b90565b600081359050611b5b816127e7565b92915050565b600082601f830112611b7257600080fd5b8135611b85611b8082612636565b612609565b91508181835260208401935060208101905083856020840282011115611baa57600080fd5b60005b83811015611bda5781611bc08882611cbe565b845260208401935060208301925050600181019050611bad565b5050505092915050565b600060e08284031215611bf657600080fd5b611c0060e0612609565b90506000611c1084828501611ca9565b6000830152506020611c2484828501611ce8565b6020830152506040611c3884828501611ce8565b6040830152506060611c4c84828501611ce8565b6060830152506080611c6084828501611ce8565b60808301525060a0611c7484828501611ca9565b60a08301525060c0611c8884828501611cd3565b60c08301525092915050565b600081359050611ca3816127fe565b92915050565b600081519050611cb8816127fe565b92915050565b600081359050611ccd81612815565b92915050565b600081519050611ce28161282c565b92915050565b600081519050611cf781612843565b92915050565b600060208284031215611d0f57600080fd5b6000611d1d84828501611b4c565b91505092915050565b600060208284031215611d3857600080fd5b600082013567ffffffffffffffff811115611d5257600080fd5b611d5e84828501611b61565b91505092915050565b600060e08284031215611d7957600080fd5b6000611d8784828501611be4565b91505092915050565b60008060408385031215611da357600080fd5b6000611db185828601611c94565b9250506020611dc285828601611cbe565b9150509250929050565b600060208284031215611dde57600080fd5b6000611dec84828501611cbe565b91505092915050565b600080600060608486031215611e0a57600080fd5b6000611e1886828701611cbe565b9350506020611e2986828701611c94565b9250506040611e3a86828701611c94565b9150509250925092565b60008060408385031215611e5757600080fd5b6000611e6585828601611cbe565b9250506020611e7685828601611cbe565b9150509250929050565b6000611e8c83836121e0565b60808301905092915050565b611ea181612729565b82525050565b611eb0816126a8565b82525050565b6000611ec18261266e565b611ecb8185612686565b9350611ed68361265e565b8060005b83811015611f07578151611eee8882611e80565b9750611ef983612679565b925050600181019050611eda565b5085935050505092915050565b611f1d816126ba565b82525050565b611f2c816126ba565b82525050565b611f3b816126c6565b82525050565b611f52611f4d826126c6565b6127dd565b82525050565b611f618161273b565b82525050565b611f708161275f565b82525050565b611f7f81612783565b82525050565b611f8e81612795565b82525050565b6000611fa1600f83612697565b91507f4e6f2061637469766520636167657300000000000000000000000000000000006000830152602082019050919050565b6000611fe1602083612697565b91507f54686520636174636861626c6520646964206e6f7420617070656172207965746000830152602082019050919050565b6000612021602683612697565b91507f4f776e61626c653a206e6577206f776e657220697320746865207a65726f206160008301527f64647265737300000000000000000000000000000000000000000000000000006020830152604082019050919050565b6000612087600383612697565b91507f4f4f4200000000000000000000000000000000000000000000000000000000006000830152602082019050919050565b60006120c7601b83612697565b91507f536166654d6174683a206164646974696f6e206f766572666c6f7700000000006000830152602082019050919050565b6000612107600583612697565b91507f55707073210000000000000000000000000000000000000000000000000000006000830152602082019050919050565b6000612147602183612697565b91507f4920646f6e2774206b6e6f77207768617420746f20646f20776974682074686960008301527f73000000000000000000000000000000000000000000000000000000000000006020830152604082019050919050565b60006121ad602083612697565b91507f4f776e61626c653a2063616c6c6572206973206e6f7420746865206f776e65726000830152602082019050919050565b6080820160008201516121f66000850182611f14565b5060208201516122096020850182612235565b50604082015161221c6040850182612262565b50606082015161222f6060850182612262565b50505050565b61223e816126d0565b82525050565b61224d816126d0565b82525050565b61225c816127cb565b82525050565b61226b816126fe565b82525050565b61227a816126fe565b82525050565b600061228c8284611f41565b60208201915081905092915050565b60006020820190506122b06000830184611ea7565b92915050565b60006060820190506122cb6000830186611e98565b6122d86020830185611f85565b6122e56040830184611f76565b949350505050565b60006060820190506123026000830186611ea7565b61230f6020830185612244565b61231c6040830184611f32565b949350505050565b60006060820190506123396000830186611ea7565b6123466020830185612271565b6123536040830184612253565b949350505050565b60006020820190506123706000830184611f23565b92915050565b600060a08201905061238b6000830188611f23565b6123986020830187612244565b6123a56040830186612271565b6123b26060830185612271565b6123bf6080830184612244565b9695505050505050565b60006020820190506123de6000830184611f32565b92915050565b60006020820190506123f96000830184611f58565b92915050565b60006020820190506124146000830184611f67565b92915050565b6000602082019050818103600083015261243381611f94565b9050919050565b6000602082019050818103600083015261245381611fd4565b9050919050565b6000602082019050818103600083015261247381612014565b9050919050565b600060208201905081810360008301526124938161207a565b9050919050565b600060208201905081810360008301526124b3816120ba565b9050919050565b600060208201905081810360008301526124d3816120fa565b9050919050565b600060208201905081810360008301526124f38161213a565b9050919050565b60006020820190508181036000830152612513816121a0565b9050919050565b600060208201905061252f6000830184612244565b92915050565b600060408201905061254a6000830185612244565b6125576020830184612244565b9392505050565b60006060820190506125736000830186612244565b6125806020830185612244565b61258d6040830184612244565b949350505050565b60006040820190506125aa6000830185612244565b6125b76020830184612271565b9392505050565b60006020820190506125d36000830184612271565b92915050565b60006040820190506125ee6000830185612271565b81810360208301526126008184611eb6565b90509392505050565b6000604051905081810181811067ffffffffffffffff8211171561262c57600080fd5b8060405250919050565b600067ffffffffffffffff82111561264d57600080fd5b602082029050602081019050919050565b6000819050602082019050919050565b600081519050919050565b6000602082019050919050565b600082825260208201905092915050565b600082825260208201905092915050565b60006126b3826126de565b9050919050565b60008115159050919050565b6000819050919050565b600061ffff82169050919050565b600073ffffffffffffffffffffffffffffffffffffffff82169050919050565b6000819050919050565b600067ffffffffffffffff82169050919050565b600060ff82169050919050565b6000612734826127a7565b9050919050565b60006127468261274d565b9050919050565b6000612758826126de565b9050919050565b600061276a82612771565b9050919050565b600061277c826126de565b9050919050565b600061278e826126fe565b9050919050565b60006127a0826126fe565b9050919050565b60006127b2826127b9565b9050919050565b60006127c4826126de565b9050919050565b60006127d6826126d0565b9050919050565b6000819050919050565b6127f0816126a8565b81146127fb57600080fd5b50565b612807816126d0565b811461281257600080fd5b50565b61281e816126fe565b811461282957600080fd5b50565b61283581612708565b811461284057600080fd5b50565b61284c8161271c565b811461285757600080fd5b5056fea264697066735822122090f9ce1235aa887adcc6a6181e95833340079f5f97b0fedb37bd3b9a0decfd8164736f6c63430006030033","source":"pragma solidity >=0.4.21 <0.7.0;\npragma experimental ABIEncoderV2;\n\nimport \"./erc1155/ERC1155.sol\";\nimport \"@openzeppelin/contracts/ownership/Ownable.sol\";\n\ninterface CatchTypes {\n    struct CatchableBase {\n        uint16 upgrade;\n        uint8 upgradeLevel;\n        uint8 xpLevelRatio;\n        uint8 genderRatio;\n        uint8 catchRate;\n\n        uint16 categories;\n\n        // Attributes (vita, speed, attack, defense, xAttack, xDefense, ...)\n        uint64 attributes;\n    }\n\n    struct CatchableProps {\n        uint16 base;\n        uint8 level;\n        uint24 xp;\n        uint16 hpPercent;\n\n        uint8 gender;\n        uint16 appearance;\n\n        // Attribute diffs (vita, speed, attack, defense, xAttack, xDefense, ...)\n        uint64 diffs;\n    }\n}\n\n// Should use CatchDex to generate new catchables\ncontract Wilderniss is CatchTypes, Ownable {\n\n    using SafeMath for uint256;\n\n    event NextCatchableBlock(uint blockNumber);\n\n    struct ZoneCatchable {\n        uint16 kind;\n        uint16 rarity;\n        uint16 maxCatchCount;\n    }\n\n    struct Throw {\n        bool collected;\n        uint16 cageCount;\n        uint cageType;\n        uint throwBlock;\n    }\n\n    struct ThrowCollection {\n        uint kindBlock;\n        Throw[] throws;\n    }\n\n    struct Cage {\n        uint16 bestRate;\n        uint16 worstRate;\n    }\n\n    CatchDex public catchDex;\n    Shop public shop;\n\n    uint public constant CAGE_COOLDOWN_BLOCKS = 2;\n    uint public constant MAX_TRIES = 10;\n    uint16 public currentKind;\n    uint16 public currentKindCatchRate;\n    uint public availableCatchables;\n    uint public kindBlockNumber;\n    ZoneCatchable[] public catchables;\n    mapping(address => ThrowCollection) public throws;\n    mapping(uint => Cage) public cageProperties;\n\n    constructor(CatchDex _catchDex, Shop _shop) public {\n        catchDex = _catchDex;\n        shop = _shop;\n    }\n\n    function getThrows(address collector) public view returns(uint kindBlock, Throw[] memory) {\n        ThrowCollection memory collectorThrows = throws[collector];\n        return (collectorThrows.kindBlock, collectorThrows.throws);\n    }\n\n    function setCage(uint id, uint16 bestRate, uint16 worstRate) public onlyOwner {\n        if (bestRate != 0 || worstRate != 0) {\n            cageProperties[id] = Cage(bestRate, worstRate);\n        } else {\n            delete cageProperties[id];\n        }\n    }\n\n    function addCatchables(uint[] memory _catchables) public onlyOwner {\n        for (uint i = 0; i < _catchables.length; i++) {\n            uint encoded = _catchables[i];\n            catchables.push(\n                ZoneCatchable(\n                    uint16(encoded >> 32), // kind\n                    uint16(encoded >> 16), // rarity\n                    uint16(encoded) // maxCatchCount\n                )\n            );\n        }\n    }\n\n    function clearCatchables() public onlyOwner {\n        delete catchables;\n    }\n\n    function removeCatchable(uint index) public onlyOwner {\n        uint catchableCount = catchables.length;\n        require(index < catchableCount, \"OOB\");\n        catchables[catchableCount - 1] = catchables[index];\n        catchables.pop();\n    }\n\n    /*\n     * Boolean returned indicates if new data has been generated\n     */\n    function calcCurrentKind()\n        public\n        view\n        returns(bool, uint16 calcKind, uint calcKindBlock, uint calcAvailableCatchables, uint16 calcKindCatchRate) {\n        calcKindBlock = kindBlockNumber;\n        calcKind = 0;\n        calcAvailableCatchables = 0;\n        calcKindCatchRate = 0;\n\n        require(block.number > calcKindBlock, \"The catchable did not appear yet\");\n        if(calcKindBlock + 255 < block.number) {\n            // \"The catchable run away\"\n            calcKindBlock = block.number + 42;\n            return (true, calcKind, calcKindBlock, calcAvailableCatchables, calcKindCatchRate);\n        }\n\n        calcKind = currentKind;\n        if (calcKind != 0) {\n            return (false, calcKind, calcKindBlock, availableCatchables, currentKindCatchRate);\n        }\n\n        uint catchableCount = catchables.length;\n        bytes32 random = blockhash(calcKindBlock);\n        uint16 expectedRarity = uint16(uint(random) % 0xfffe) + 1;\n        while(calcKind == 0) {\n            ZoneCatchable memory catchable = catchables[(uint16(uint(random) % catchableCount))];\n            if (catchable.rarity > 0 && catchable.rarity >= expectedRarity) {\n                calcKind = catchable.kind;\n                calcAvailableCatchables = catchable.maxCatchCount;\n                calcKindCatchRate = catchDex.baseProps(calcKind).catchRate;\n            } else {\n                expectedRarity = expectedRarity / 2;\n                random = keccak256(abi.encodePacked(random));\n            }\n        }\n        return (true, calcKind, calcKindBlock, calcAvailableCatchables, calcKindCatchRate);\n    }\n\n    function setCurrentKindBlock(uint number) private returns(uint) {\n            kindBlockNumber = number;\n            return number;\n    }\n\n    function currentKindInfo() public returns (uint16 availableKind, uint availableKindBlock) {\n        bool newData;\n        uint availableKindCount;\n        uint16 availableKindCatchRate;\n        (newData, availableKind, availableKindBlock, availableKindCount, availableKindCatchRate) = calcCurrentKind();\n\n        if (newData) {\n            currentKind = availableKind;\n            availableCatchables = availableKindCount;\n            currentKindCatchRate = availableKindCatchRate;\n            kindBlockNumber = availableKindBlock;\n            if (currentKind == 0) {\n                emit NextCatchableBlock(availableKindBlock);\n            }\n            try shop.findItem(_msgSender(), 0x8096053b85575944c326764cc6482f6906db772a41aa99f7533f62dcadddf72b, 1) {} catch (bytes memory errorBytes) {}\n        }\n    }\n\n    function aWildCatchableAppears(uint16 cageCount, uint cageType) public {\n        require(cageProperties[cageType].worstRate != 0, \"I don't know what to do with this\");\n        uint availableKindBlock;\n        (, availableKindBlock) = currentKindInfo();\n        if (currentKind == 0) return; // Nothing appeared\n        address collector = _msgSender();\n        shop.useItem(collector, cageType, cageCount);\n\n        ThrowCollection storage collectorsThrows = throws[collector];\n        if (collectorsThrows.kindBlock != availableKindBlock) {\n            delete collectorsThrows.throws;\n            collectorsThrows.kindBlock = availableKindBlock;\n        }\n        collectorsThrows.throws.push(Throw(false, cageCount, cageType, block.number));\n    }\n\n    function checkCages(uint offset, uint count) public returns (uint) {\n        uint16 availableKind;\n        uint availableKindBlock;\n        (availableKind, availableKindBlock) = currentKindInfo();\n        if (availableKind == 0) return 0; // Nothing appeared\n        address collector = _msgSender();\n        ThrowCollection storage collectorsThrows = throws[collector];\n        require(collectorsThrows.kindBlock == availableKindBlock, \"No active cages\");\n        uint successfullThrows = 0;\n        for (uint i = offset; i < offset + count; i++) {\n            successfullThrows = successfullThrows.add(processThrow(collectorsThrows.throws[i], availableKind, collector));\n        }\n        return successfullThrows;\n    }\n\n    function nextRandom(bytes32 random) private returns (bytes32) {\n        return keccak256(abi.encode(random));\n    }\n\n    function processThrow(Throw storage collectorThrow, uint16 availableKind, address collector) private returns (uint) {\n        if (collectorThrow.collected) return 0;\n        uint targetBlock = collectorThrow.throwBlock.add(CAGE_COOLDOWN_BLOCKS);\n        if (targetBlock >= block.number) return 0;\n        collectorThrow.collected = true;\n        uint possibleThrows = availableCatchables;\n        if (possibleThrows == 0) return 0;\n        uint plannedThrows = collectorThrow.cageCount;\n        uint successfulThrows = 0;\n        Cage memory cage = cageProperties[collectorThrow.cageType];\n        bytes32 random = blockhash(targetBlock);\n        for (uint i = 0; i < plannedThrows; i++) {\n            require(random != 0x0, \"Upps!\");\n            random = nextRandom(random);\n            uint16 cageCatchRate = uint16(uint(random) % (cage.worstRate - cage.bestRate)) + cage.bestRate;\n            if (cageCatchRate < currentKindCatchRate) {\n                successfulThrows++;\n                catchDex.catchIt(collector, availableKind, random);\n            }\n            if (successfulThrows >= possibleThrows) break;\n        }\n        availableCatchables = possibleThrows - successfulThrows;\n        if (possibleThrows == successfulThrows) {\n            // TODO extract method\n            kindBlockNumber = setCurrentKindBlock(block.number + 42);\n            currentKind = 0;\n        }\n        return successfulThrows;\n    }\n}\n\n// This is a semi-NFT for our items\ncontract Shop is ERC1155, Ownable {\n\n    uint public constant CURRENCY_ID = 0;\n    uint public itemCount = 1; // We always have at least the currency\n    mapping(address => bool) public printers;\n    mapping(address => bool) public consumers;\n    mapping(address => bool) public treasuries;\n    mapping(uint => uint) public prices;\n\n    function setPrinter(address printer, bool enabled) public onlyOwner {\n        printers[printer] = enabled;\n    }\n\n    function setConsumer(address consumer, bool enabled) public onlyOwner {\n        consumers[consumer] = enabled;\n    }\n\n    function setTreasury(address treasury, bool enabled) public onlyOwner {\n        treasuries[treasury] = enabled;\n    }\n\n    function setPrice(uint id, uint price) public onlyOwner {\n        prices[id] = price;\n    }\n\n    function printMoney(address benefactor, uint amount) public {\n        require(printers[_msgSender()], \"Only printers can print money\");\n        _mint(benefactor, CURRENCY_ID, amount, \"\");\n    }\n\n    function buyItem(uint id, uint amount) public {\n        uint itemPrice = prices[id];\n        require(itemPrice != 0, \"Item is not available\");\n        uint totalPrice = itemPrice.mul(amount);\n        address customer = _msgSender();\n        _burn(customer, CURRENCY_ID, totalPrice);\n        _mint(customer, id, amount, \"\");\n    }\n\n    function sellItem(uint id, uint amount) public {\n        uint itemPrice = prices[id];\n        require(itemPrice != 0, \"Item is not available\");\n        uint totalPrice = itemPrice.mul(amount) / 2;\n        address customer = _msgSender();\n        _burn(customer, id, amount);\n        _mint(customer, CURRENCY_ID, totalPrice, \"\");\n    }\n\n    function useItem(address owner, uint id, uint amount) public {\n        require(consumers[_msgSender()], \"This isn't the time to use that!\");\n        _burn(owner, id, amount);\n    }\n\n    function findItem(address finder, uint id, uint amount) public {\n        require(treasuries[_msgSender()], \"You find items in treasuries\");\n        require(id != CURRENCY_ID, \"You do not just find money\");\n        _mint(finder, id, amount, \"\");\n    }\n}\n\ncontract SomeonesPc is Ownable, CatchTypes {\n    uint8 public constant DIFF_RANGE = 31;\n\n    CatchDex public dex;\n    mapping(uint16 => CatchableBase) public baseProperties;\n    mapping(uint => CatchableProps) public catchableProperties;\n    mapping(address => bool) public upgraders;\n\n    constructor(CatchDex _dex) public {\n        dex = _dex;\n    }\n\n\n    function setUpgrader(address upgrader, bool enabled) public onlyOwner {\n        upgraders[upgrader] = enabled;\n    }\n\n\n    function batchedAddBaseProperty(uint[] memory props) public onlyOwner {\n        for (uint i = 0; i < props.length; i++) {\n            uint encoded = props[i];\n            setBaseProperty(\n                uint16(encoded >> 128), // index\n                CatchableBase(\n                    uint16(encoded >> 112), // upgradeLevel\n                    uint8(encoded >> 104), // upgradeLevel\n                    uint8(encoded >> 96), // xpLevelRatio\n                    uint8(encoded >> 88), // genderRatio\n                    uint8(encoded >> 80), // catchRate\n                    uint16(encoded >> 64), // categories\n                    uint64(encoded) // attributes\n                )\n            );\n        }\n    }\n\n    function setBaseProperty(uint16 index, CatchableBase memory _base) public onlyOwner {\n        baseProperties[index] = _base;\n    }\n\n    function baseProps(uint16 _type) public view returns (CatchableBase memory) {\n        return baseProperties[_type];\n    }\n\n    function nextRandom(bytes32 random) private view returns (bytes32) {\n        return keccak256(abi.encode(random));\n    }\n\n    // TODO evolving\n    function upgradeCatch(uint _id, uint16 _kind) public {\n        require(upgraders[_msgSender()], \"Tell me your tale of failure again.\");\n        CatchableProps storage props = catchableProperties[_id];\n        props.base = _kind;\n    }\n\n    function earnXp(uint _id, uint24 amount) public {\n        require(upgraders[_msgSender()], \"Tell me your tale of failure again.\");\n        CatchableProps storage props = catchableProperties[_id];\n        CatchableBase memory base = baseProperties[props.base];\n        uint16 newBase = 0;\n        uint8 currentLevel = props.level;\n        uint newXp = uint(props.xp) + uint(amount);\n        while (newXp > currentLevel * base.xpLevelRatio) {\n            newXp = newXp - (currentLevel * base.xpLevelRatio);\n            currentLevel++;\n            if (currentLevel >= base.upgradeLevel) {\n                newBase = base.upgrade;\n                base = baseProperties[newBase];\n            }\n        }\n        if (newBase != 0) {\n            props.base = newBase;\n        }\n        props.level = currentLevel;\n        props.xp = uint24(newXp);\n    }\n\n    function registerCatch(uint _id, uint16 _kind, bytes32 random) public {\n        require(_msgSender() == address(dex), \"Only CatchDex can register new catchables\");\n        // use _kind to generate instance\n        CatchableBase memory base = baseProperties[_kind];\n        uint8 gender = base.genderRatio == 0 ? 2 : (uint8(uint(random)) >= base.genderRatio ? 0 : 1);\n\n        bytes32 _random = nextRandom(random);\n        uint16 appearance = uint16(uint(keccak256(abi.encode(_id, _random))));\n\n        _random = nextRandom(_random);\n        uint vitaDiff = uint(_random) % DIFF_RANGE;\n        _random = nextRandom(_random);\n        uint speedDiff = uint(_random) % DIFF_RANGE;\n        _random = nextRandom(_random);\n        uint attackDiff = uint(_random) % DIFF_RANGE;\n        _random = nextRandom(_random);\n        uint defenseDiff = uint(_random) % DIFF_RANGE;\n        _random = nextRandom(_random);\n        uint xAttackDiff = uint(_random) % DIFF_RANGE;\n        _random = nextRandom(_random);\n        uint xDefenseDiff = uint(_random) % DIFF_RANGE;\n\n        catchableProperties[_id] = CatchableProps(\n            _kind,\n            1, // level\n            0, // xp\n            0xffff, // hpPercent\n            gender, // gender\n            appearance, // appearance\n            uint64(\n                vitaDiff << 56 |\n                speedDiff << 48 |\n                attackDiff << 40 |\n                defenseDiff << 32 |\n                xAttackDiff << 24 |\n                xDefenseDiff << 16\n            )\n        );\n    }\n}\n\n// This is a NFT for our catchables\ncontract CatchDex is ERC1155, Ownable, CatchTypes {\n\n    SomeonesPc public pc;\n    // TODO: Should we move zones to someonesPc and only allow minting from there\n    mapping(address => bool) public zones;\n    uint public lastId = 0;\n\n    function setZone(address zone, bool enabled) public onlyOwner {\n        zones[zone] = enabled;\n    }\n\n    function setPc(SomeonesPc _pc) public onlyOwner {\n        pc = _pc;\n    }\n\n    function catchIt(address actor, uint16 kind, bytes32 random) public {\n        SomeonesPc _pc = pc;\n        require(address(_pc) != address(0), \"Could not find PC\");\n        require(zones[_msgSender()], \"Can only catch stuff in the zones\");\n        // We use it NFT style ... each catchable only exists once\n        _mint(actor, lastId, 1, \"\");\n        _pc.registerCatch(lastId, kind, random);\n        lastId = lastId.add(1);\n    }\n\n    function baseProps(uint16 _type) public view returns (CatchableBase memory) {\n        return pc.baseProps(_type);\n    }\n}","compiler":{"name":"solc","version":"0.6.3+commit.8dda9521.Emscripten.clang"},"schemaVersion":"3.0.23","updatedAt":"2020-03-13T12:12:20.771Z","networkType":"ethereum","devdoc":{"methods":{"isOwner()":{"details":"Returns true if the caller is the current owner."},"owner()":{"details":"Returns the address of the current owner."},"renounceOwnership()":{"details":"Leaves the contract without owner. It will not be possible to call `onlyOwner` functions anymore. Can only be called by the current owner.     * NOTE: Renouncing ownership will leave the contract without an owner, thereby removing any functionality that is only available to the owner."},"transferOwnership(address)":{"details":"Transfers ownership of the contract to a new account (`newOwner`). Can only be called by the current owner."}}},"userdoc":{"methods":{}}}